{
  "transactions": [
    {
      "hash": "0x9dca0116a84f476df96810f9875dfb57b35c263ea5c49acb2a73dce909bb6d43",
      "transactionType": "CALL",
      "contractName": null,
      "contractAddress": "0xf3dd8590507e46bdd00415eff78a636dbd162088",
      "function": "mintNft(string)",
      "arguments": [
        "https://ipfs.io/ipfs/QmYx6Gs7mPGSiG2PxvxtzMJpn9zTis6tz88d7dpx8tJ9d?filename=pug.png"
      ],
      "transaction": {
        "from": "0x9afa1e57dbd343393e1dd1c60be15712c5fd4b80",
        "to": "0xf3dd8590507e46bdd00415eff78a636dbd162088",
        "gas": "0x3da3e",
        "value": "0x0",
        "input": "0xda86f4a90000000000000000000000000000000000000000000000000000000000000020000000000000000000000000000000000000000000000000000000000000005368747470733a2f2f697066732e696f2f697066732f516d5978364773376d50475369473250787678747a4d4a706e397a54697336747a3838643764707838744a39643f66696c656e616d653d7075672e706e6700000000000000000000000000",
        "nonce": "0x1b",
        "chainId": "0xaa36a7"
      },
      "additionalContracts": [],
      "isFixedGasLimit": false
    }
  ],
  "receipts": [
    {
      "status": "0x1",
      "cumulativeGasUsed": "0x151e088",
      "logs": [
        {
          "address": "0xf3dd8590507e46bdd00415eff78a636dbd162088",
          "topics": [
            "0xddf252ad1be2c89b69c2b068fc378daa952ba7f163c4a11628f55a4df523b3ef",
            "0x0000000000000000000000000000000000000000000000000000000000000000",
            "0x0000000000000000000000009afa1e57dbd343393e1dd1c60be15712c5fd4b80",
            "0x0000000000000000000000000000000000000000000000000000000000000000"
          ],
          "data": "0x",
          "blockHash": "0x64ed9e2c2a64e8a21413fcb6646c2e24f481b1906929874bf0ec2c17b3129498",
          "blockNumber": "0x84f070",
          "blockTimestamp": "0x686bcb30",
          "transactionHash": "0x9dca0116a84f476df96810f9875dfb57b35c263ea5c49acb2a73dce909bb6d43",
          "transactionIndex": "0xf8",
          "logIndex": "0x1ad",
          "removed": false
        }
      ],
      "logsBloom": "0x00000000000000000000800000000000000000000000000000000004000000000000000000000000000000000000000000000000000400200000000000000000000000000000000000000008000000000000000000000000000000000000000000000000021000000000000000000800000000000000000000000010000000000000000000000000000000000000000000000000000000000000000000000000000000000000000000000000000000000000000000000000000000000000000000000002000000000000000000000000000000000000000000000000000020000000000000000000000000000000000000000000000002000000000000000000",
      "type": "0x2",
      "transactionHash": "0x9dca0116a84f476df96810f9875dfb57b35c263ea5c49acb2a73dce909bb6d43",
      "transactionIndex": "0xf8",
      "blockHash": "0x64ed9e2c2a64e8a21413fcb6646c2e24f481b1906929874bf0ec2c17b3129498",
      "blockNumber": "0x84f070",
      "gasUsed": "0x2ca06",
      "effectiveGasPrice": "0x5e2cadea",
      "from": "0x9afa1e57dbd343393e1dd1c60be15712c5fd4b80",
      "to": "0xf3dd8590507e46bdd00415eff78a636dbd162088",
      "contractAddress": null
    }
  ],
  "libraries": [],
  "pending": [],
  "returns": {},
  "timestamp": 1751894833,
  "chain": 11155111,
  "commit": "e27f16e"
}