{
  "transactions": [
    {
      "hash": "0xe34a5a8816485122f6f5cf955077f29c9bd48c232dabe40bfea298f86ff8d19d",
      "transactionType": "CALL",
      "contractName": null,
      "contractAddress": "0xf3dd8590507e46bdd00415eff78a636dbd162088",
      "function": "mintNft(string)",
      "arguments": [
        "ipfs://bafybeig37ioir76s7mg5oobetncojcm3c3hxasyd4rvid4jqhy4gkaheg4/?filename=0-PUG.json"
      ],
      "transaction": {
        "from": "0x9afa1e57dbd343393e1dd1c60be15712c5fd4b80",
        "to": "0xf3dd8590507e46bdd00415eff78a636dbd162088",
        "gas": "0x321f9",
        "value": "0x0",
        "input": "0xda86f4a900000000000000000000000000000000000000000000000000000000000000200000000000000000000000000000000000000000000000000000000000000057697066733a2f2f62616679626569673337696f6972373673376d67356f6f6265746e636f6a636d3363336878617379643472766964346a71687934676b61686567342f3f66696c656e616d653d302d5055472e6a736f6e000000000000000000",
        "nonce": "0x1c",
        "chainId": "0xaa36a7"
      },
      "additionalContracts": [],
      "isFixedGasLimit": false
    }
  ],
  "receipts": [
    {
      "status": "0x1",
      "cumulativeGasUsed": "0x1a3dfb0",
      "logs": [
        {
          "address": "0xf3dd8590507e46bdd00415eff78a636dbd162088",
          "topics": [
            "0xddf252ad1be2c89b69c2b068fc378daa952ba7f163c4a11628f55a4df523b3ef",
            "0x0000000000000000000000000000000000000000000000000000000000000000",
            "0x0000000000000000000000009afa1e57dbd343393e1dd1c60be15712c5fd4b80",
            "0x0000000000000000000000000000000000000000000000000000000000000001"
          ],
          "data": "0x",
          "blockHash": "0x3ecf38d54406e7c3812cd2a4c88aa547dab2b733c936afbfc8d4e64e737737ab",
          "blockNumber": "0x84f083",
          "blockTimestamp": "0x686bcc14",
          "transactionHash": "0xe34a5a8816485122f6f5cf955077f29c9bd48c232dabe40bfea298f86ff8d19d",
          "transactionIndex": "0x128",
          "logIndex": "0x1d3",
          "removed": false
        }
      ],
      "logsBloom": "0x00000000000000000000800000000000000000000000000000000004000000000000000000000000000000000000000000000000000400200000000000040000000000000000000000000008000000000000000000040000000000000000000000000000021000000000000000000800000000000000000000000010000000000000000000000000000000000000000000000000000000000000000000000000000000000000000000000000000000000000000000000000000000000000000000000002000000000000000000000000000000000000000000000000000060000000000000000000000000000000000000000000000002000000000000000000",
      "type": "0x2",
      "transactionHash": "0xe34a5a8816485122f6f5cf955077f29c9bd48c232dabe40bfea298f86ff8d19d",
      "transactionIndex": "0x128",
      "blockHash": "0x3ecf38d54406e7c3812cd2a4c88aa547dab2b733c936afbfc8d4e64e737737ab",
      "blockNumber": "0x84f083",
      "gasUsed": "0x2449e",
      "effectiveGasPrice": "0x8d2dd00a",
      "from": "0x9afa1e57dbd343393e1dd1c60be15712c5fd4b80",
      "to": "0xf3dd8590507e46bdd00415eff78a636dbd162088",
      "contractAddress": null
    }
  ],
  "libraries": [],
  "pending": [],
  "returns": {},
  "timestamp": 1751895062,
  "chain": 11155111,
  "commit": "e27f16e"
}